:020000040800F2
:1000000040500020E90200084B1600083715000890
:10001000411600081F060008151B0008000000001C
:10002000000000000000000000000000290200089D
:100030002D0600080000000085020008791900085C
:100040000303000803030008030300080303000878
:100050000303000803030008030300080303000868
:100060000303000803030008030300080303000858
:100070000303000803030008030300080303000848
:100080000303000803030008030300080303000838
:100090002106000803030008030300080303000807
:1000A00003030008391A00080303000803030008CB
:1000B0000303000803030008030300080303000808
:1000C00003030008030300080303000803030008F8
:1000D00003030008030300080303000803030008E8
:1000E00003030008030300080303000803030008D8
:1000F00003030008030300080303000803030008C8
:1001000003030008030300080303000803030008B7
:1001100003030008030300080303000803030008A7
:100120000303000803030008030300080303000897
:100130000303000803030008030300080303000887
:100140000303000803030008030300080303000877
:100150000303000803030008030300080303000867
:100160000303000803030008030300080303000857
:100170000303000803030008030300080000000055
:10018000030300080303000800F002F800F03CF845
:100190000AA090E8000C82448344AAF10107DA45E2
:1001A00001D100F031F8AFF2090EBAE80F0013F0F8
:1001B000010F18BFFB1A43F0010318470C38000069
:1001C0002C380000103A24BF78C878C1FAD85207FA
:1001D00024BF30C830C144BF04680C6070470000C1
:1001E0000023002400250026103A28BF78C1FBD840
:1001F000520728BF30C148BF0B6070471FB503F0DE
:1002000091F81FBD10B510BD00F0D0F91146FFF7F1
:10021000F5FF01F090FC00F0EEF903B4FFF7F2FFF8
:1002200003BC00F0F5F900002C4B19680868B0E831
:10023000F04F80F30988BFF36F8F4FF0000080F319
:10024000118870470000000008480068006880F3CB
:1002500008884FF0000080F3148862B661B6BFF3DF
:100260004F8FBFF36F8F00DF00BF00BF08ED00E0CE
:10027000DFF80C00016841F470010160704700BFB5
:1002800088ED00E0EFF30980BFF36F8F134B1A681E
:100290001EF0100F08BF20ED108A20E9F04F10600B
:1002A00009B44FF0500080F31188BFF34F8FBFF3B4
:1002B0006F8F02F009FB4FF0000080F3118809BC3A
:1002C00019680868B0E8F04F1EF0100F08BFB0ECD6
:1002D000108A80F30988BFF36F8F70471C000020DD
:1002E000EFF3058070470000094880470948004740
:1002F000FEE7FEE7FEE7FEE7FEE7FEE7FEE7FEE7D6
:10030000FEE7FEE704480549054A064B7047000032
:10031000291A000889010008404A002040500020A6
:10032000404C0020404C002053EA020C00F0698051
:100330002DE9F04B4FF00006002B1FBFB3FA83F5F9
:1003400003FA05F424FA05F65E4012BF1643B2FA2A
:1003500082F502FA05F4C5F120051EBF22FA05FC5C
:1003600044EA0C04203556EA044C4FEA144418BF02
:10037000641C4FF000084FF00009904271EB030C31
:1003800039D3002919BFB1FA81F701FA07F6B0FA9B
:1003900080F700FA07F6C7F120071EBF20FA07FC16
:1003A00046EA0C062037B6FBF4FCA7EB0507103F26
:1003B00007F01F0BCBF120060CFA0BFB2CFA06F60C
:1003C00044BFB3460026202FA4BF5E464FF0000B6B
:1003D0005BEA060C08BF4FF0010B19EB0B09ABFBF6
:1003E000027C48EB0608C01B06FB02CC0BFB03CCCF
:1003F00071EB0C01C1E70B46024641464846BDE899
:10040000F08B13B54FF000004FF00001AFF3008008
:10041000BDE81C407047032A40F2308010F0030C06
:1004200000F0158011F8013BBCF1020F624498BF47
:1004300011F801CB00F8013B38BF11F8013BA2F1E4
:10044000040298BF00F801CB38BF00F8013B11F05F
:10045000030300F05780083AC0F0088051F8043BCD
:10046000083A51F804CBA0E80810F5E7121D5CBF6C
:1004700051F8043B40F8043BAFF30080D20724BF9F
:1004800011F8013B11F801CB48BF11F8012B24BF33
:1004900000F8013B00F801CB48BF00F8012B704782
:1004A00002F0FF0343EA032242EA024200F05EB890
:1004B0004FF0000200B5134694469646203922BFFD
:1004C000A0E80C50A0E80C50B1F12001BFF4F7AF48
:1004D000090728BFA0E80C5048BF0CC05DF804EB2A
:1004E000890028BF40F8042B08BF704748BF20F898
:1004F000022B11F0804F18BF00F8012B7047704796
:100500007047704710B5203AC0F00B80B1E8185022
:10051000203AA0E81850B1E81850A0E81850BFF4ED
:10052000F5AF5FEA027C24BFB1E81850A0E818508C
:1005300044BF18C918C0BDE810405FEA827C24BFE0
:1005400051F8043B40F8043B08BF7047D20728BF6E
:1005500031F8023B48BF11F8012B28BF20F8023BBD
:1005600048BF00F8012B70474FF000020429C0F08B
:10057000128010F0030C3FF49DAFCCF1040CBCF1E1
:10058000020F18BF00F8012BA8BF20F8022BA1EB27
:100590000C01FFF78FBF5FEAC17C24BF00F8012B7D
:1005A00000F8012B48BF00F8012B7047754600F09A
:1005B0002BF8AE4605006946534620F007008546F5
:1005C00018B020B5FFF79EFEBDE820404FF00006B2
:1005D0004FF000074FF000084FF0000B21F007012B
:1005E000AC46ACE8C009ACE8C009ACE8C009ACE86E
:1005F000C0098D46704710B50446AFF30080204611
:10060000BDE81040FFF709BE00487047E0490020F0
:1006100001491820ABBEFEE7260002007047FEE746
:10062000014800F007B800009C000020704772B637
:10063000FEE770472DE9F05F054600680024466933
:10064000D0F804908768D0F80CB0D0F810A0D0F89B
:100650001880F10748D0F90714D001218160B8074C
:1006600003D5284600F0B6F90CE0780702D54FF420
:10067000006407E0380702D54FF4805402E02846B2
:1006800000F0A7F9F80516D529684FF48070886046
:10069000B80503D5284600F09FF90CE0780502D58F
:1006A00044F4005407E0380502D544F4804402E0E5
:1006B000284600F090F9F80316D529684FF48030E9
:1006C0008860B80303D5284600F088F90CE0780369
:1006D00002D544F4004407E0380302D544F48034E2
:1006E00002E0284600F079F9300707D55FEACB60D1
:1006F00004D52968102044F40074C86070074FF0D6
:10070000080707D55FEA0B7004D52868C76028463C
:1007100000F05AF9B00706D52868C068800702D0F3
:10072000284600F052F9700607D55FEACA6004D582
:100730002968102044F480640861B00607D55FEA98
:100740000A7004D528680761284600F03FF9F006D2
:1007500006D528680069800702D0284600F037F9DE
:10076000B00308D55FEAC96005D529681020486044
:10077000284600F02DF9F00307D55FEA097004D58B
:1007800028684760284600F02AF9300446D55FEA19
:10079000497040D5F00504D55FEAC87001D044F037
:1007A0000104B00504D55FEA887001D544F0020465
:1007B000700504D55FEA487001D544F004043005A3
:1007C00029D518F0700F26D008F07000402815D0F9
:1007D00006DC102809D020280AD0302816D10AE0DB
:1007E00050280ED0602811D10EE044F008040DE02E
:1007F00044F010040AE044F0200407E044F0400410
:1008000004E044F0800401E044F4807428688169C5
:1008100021F070018161296804204860002C05D016
:10082000686A204368622846FFF703FFBDE8F09F2F
:1008300070B5040003D094F8200010B104E001204A
:1008400070BD204600F082F82068016841F0010187
:10085000016000F0C3F90546052604E000F0BEF98A
:10086000401B0A2811D820684068C007F6D02068CD
:10087000016821F00201016000F0B0F905460BE0CB
:1008800000F0ACF9401B0A2806D9606A40F4003039
:10089000606284F82060D2E7206840688007EFD467
:1008A000207E0128206801683DD021F08001016090
:1008B000607E01282068016838D021F04001016085
:1008C000A07E01282068016833D021F0200101605A
:1008D000E07E0128206801682ED041F010010160FF
:1008E000207F01282068016829D021F008010160DB
:1008F000607F01282068016824D021F00401016094
:10090000D4E902010843D4E90412114308436168A1
:10091000491E08432168C86100206062012084F8F4
:100920002000002070BD41F08001C0E741F040018F
:10093000C5E741F02001CAE721F01001CFE741F0FF
:100940000801D4E741F00401D9E7000010B586B0F2
:10095000044614216846FFF7ABFD18492068884219
:1009600029D117480021026842F000720260006835
:1009700000F00070059012481038026842F0010241
:100980000260006800F0010005904FF4C050009034
:100990000220CDE90101032003900920049069465B
:1009A000084800F01DF800220521142000F0AEF9DF
:1009B000142000F09DF906B010BD00000064004056
:1009C000403802400000024070477047704770474F
:1009D000704770477047704770477047704770475F
:1009E0002DE9F84FDFF8BCA10022012503264FF0C6
:1009F0000F090AF1040BAAF1040E00BF0B6805FAF7
:100A000002F42340A34270D10F7907F00307012FAE
:100A100001D0022F16D187684FEA420806FA08FC77
:100A200027EA0C07D1F80CC00CFA08FC4CEA070CBA
:100A3000C0F808C04768A7430C79C4F30014944079
:100A40003C4344600C79E443A4070AD0C4684FEAED
:100A5000420C06FA0CF7BC438F6807FA0CF72743E1
:100A6000C7600C7904F00304022C12D1D40800EB07
:100A7000840CDCF820405707FF0E09FA07F824EA37
:100A80000804D1F8108008FA07F848EA0408CCF8FE
:100A9000208004684FEA420C06FA0CF7BC430F7939
:100AA00007F0030707FA0CF7274307604C6814F4B4
:100AB000403F70D03C4C276847F48047276024684B
:100AC00022F0030704F480440094384C07EB040C34
:100AD000DCF8084897074FEA177809FA08F7BC438B
:100AE000334FB84202D1002724E054E0314FB842DE
:100AF00001D101271EE0304FB84201D1022719E091
:100B00002E4FB84201D1032714E02D4FB84201D136
:100B100004270FE02B4FB84201D105270AE02A4FE6
:100B2000B84201D1062705E0284FB84201D1072776
:100B300000E0082707FA08F72743CCF80878DAF826
:100B400000405746D1F804C09C435FEACC2C00D546
:100B50001C433C60DBF800405F46D1F804C09C4376
:100B60005FEA8C2C00D51C433C60DEF800407746E1
:100B7000D1F804C09C435FEA8C3C00D51C433C6028
:100B8000084F083F3C68D1F804C09C435FEACC3C66
:100B900000D51C433C60521C102AFFF42FAFBDE867
:100BA000F88F0000083C014044380240003001400A
:100BB000000002400004024000080240000C024015
:100BC000001002400014024000180240001C0240C5
:100BD0000AB1816170470904FBE7000001488068A1
:100BE000704700000C000020024881680278114420
:100BF000816070470C0000200B4810B5016841F47B
:100C000000710160016841F480610160016841F494
:100C100080710160032000F099F80F2000F006F8C1
:100C200000F04AF8002010BD003C024030B50546F7
:100C30001C4887B00024016841F001010160006890
:100C400006A900F00100009001A800F02BF900F0C7
:100C500049F915494000B0FBF1F11548134A491E06
:100C6000026040F2E732C0E90324C0E90114846164
:100C700000F032FB040012D10D4800F05BFB0400D1
:100C80000DD1192000F034F8102D07D2002229468A
:100C9000192000F03BF80748056000E0012407B088
:100CA000204630BD4438024040420F000000014061
:100CB000C4000020100000200C4882B0016841F4FC
:100CC00080410160006800F4804000900748001FE8
:100CD000016841F0805101600068002200F08050FE
:100CE00000900F21901E02B000F010B8443802406E
:100CF000002809DB00F01F0201219140400980001B
:100D000000F1E020C0F8001170470000F0B40E4B75
:100D10001B680C46C3F30223C3F10705042D00D959
:100D20000425191D072901D2002300E0DB1E01263E
:100D300006FA05F1491E214099409E40761E164054
:100D40003143F0BC00F0E7BE0CED00E0064900F0D6
:100D5000070208684FF6FF03184040EA0220034AE2
:100D600010430860704700000CED00E00000FA0539
:100D70002DE9F0470E46050065D0DFF81481D8F85C
:100D80000000F7B200F00700B04207D288F8007008
:100D9000D8F8000000F00700B04254D128683D4C5C
:100DA000810712D5400703D5206840F4E050206049
:100DB0002878000703D5206840F460402060206850
:100DC000A96820F0F000084320602878C0072DD0E3
:100DD000304968680839012812D0022813D0032846
:100DE00011D00968890700292DDA216821F0030153
:100DF00001432160FFF7F2FE814641F2883A0EE09E
:100E000009688903EFE709688901ECE7FFF7E6FE67
:100E1000A0EB0901514502D90320BDE8F087206805
:100E2000696800F00C00B0EB810FEFD1D8F800102A
:100E3000404601F00701B14207D90770006800F091
:100E40000700B04201D00120E7E72878400705D528
:100E50002068E96820F4E050084320602878000703
:100E600006D52068296920F4604040EAC10020606E
:100E700000F048F82168084AC1F30311515CC840EA
:100E80000649086006480068FFF7D0FE0020C4E766
:100E9000003C0240083802409C3300081800002043
:100EA000100000200F2202600C4A136803F00303B5
:100EB0004360136803F0F0038360136803F4E053A6
:100EC000C36012684FF4E05303EAD202026104489F
:100ED000006800F007000860704700000838024012
:100EE000003C02400448054900680968044AC1F30F
:100EF0004231515CC8407047180000200838024059
:100F0000AC330008154810B5006810F00C02144806
:100F100013D01449042A0FD0082A0ED10F4C241FD5
:100F20002268236802F03F025B0207D52068C0F305
:100F30008810A0FB010106E0084610BD2168C1F33E
:100F40008811A1FB00010023FFF7EEF92168C1F32E
:100F50000141491C4900B0FBF1F010BD08380240C6
:100F60000024F40040787D012DE9F84F04006ED094
:100F70002078DFF84C93C007A9F104054AD009F1A5
:100F800004000168C1F38101012908D00068C0F3A1
:100F9000810002280AD1D9F80000400206D528684D
:100FA000800337D560680028E1D033E06068B0F591
:100FB000803F10D0B0F5A02F286810D020F48030EA
:100FC0002860286820F4802028606068A8B1FFF7B6
:100FD00005FE06460DE0286840F48030F4E740F452
:100FE00080202860F7E700BFFFF7F8FD801B64282A
:100FF00073D828688003F7D50CE0FFF7EFFD0646AD
:1010000005E000BFFFF7EAFD801B6428F0D82868E0
:101010008003F7D42078DFF8AC8280074FF0000A15
:101020003ED5A748001D016811F00C0F08D00068DC
:10103000C0F3810002280BD1D9F80000400207D488
:101040002868800716D5E068012800D112E033E156
:10105000E068B8B10120C8F80000FFF7BFFD064600
:1010600005E000BFFFF7BAFD801B0228C0D8286842
:101070008007F7D52868216920F0F80040EAC10010
:1010800028600DE0C8F800A0FFF7A8FD064604E0C0
:10109000FFF7A4FD801B02281FD828688007F7D41B
:1010A0002078000722D5864F87486169703771B173
:1010B00001210160FFF792FD064604E0FFF78EFD77
:1010C000801B022809D838688007F7D50EE0C0F8E1
:1010D00000A0FFF783FD064605E082E0FFF77EFDF6
:1010E000801B02287DD838688007F7D42078400715
:1010F00068D5DFF8CCB100270BF13C0BDBF8000022
:10110000C0000BD4DBF8001041F08051CBF8001088
:10111000DBF80000012700F0805000906B4E306833
:10112000C00510D4306840F480703060FFF756FD81
:10113000009005E0FFF752FD0099401A022850D8B0
:101140003068C005F6D55E4EA0686C3601280FD019
:101150000528306810D020F001003060306820F0A1
:1011600004003060A068B8B1FFF738FD00900FE0D0
:10117000306840F00100F4E740F004003060F7E729
:10118000FFF72CFD0099411A41F28830814266D860
:1011900030688007F4D50EE0FFF720FD009007E0EF
:1011A000FFF71CFD0099411A41F28830814256D860
:1011B00030688007F4D42FB1DBF8001021F08051A3
:1011C000CBF80010A069C8B33D49091D0968C1F3F7
:1011D000810102294AD00228504607D0C8F8600091
:1011E00000E03CE0FFF7FAFC04463BE04746C8F865
:1011F0006000FFF7F3FC064605E000BFFFF7EEFCDA
:10120000801B02282BD828688001F7D4D4E9070175
:101210000843A16A2E4A490802EB0141626A41EA89
:101220008211084394F82C1040EA0161C9F80010BB
:1012300001203866FFF7D2FC044606E03EE000BF1E
:10124000FFF7CCFC001B022809D828688001F7D5DD
:1012500034E000BFFFF7C2FC001B022802D90320C4
:10126000BDE8F88F28688001F4D427E00128F7D082
:10127000D9F80000E26900F4800191421CD1226A91
:1012800000F03F01914217D147F6C071626A0140F8
:10129000B1EB821F10D1A26A4FF0FF3300F440314E
:1012A00003EB5202B1EB024F06D194F82C1000F080
:1012B0007060B0EB016F01D00120D1E70020CFE7D3
:1012C0000438024000004742800E47420070004050
:1012D0000000FFFF7047704710B5040003D094F87A
:1012E0003D0010B107E0012010BD002084F83C0053
:1012F000204600F01EF8022084F83D00211D2068E1
:1013000000F0A0FB012084F8460084F83E0084F839
:101310003F0084F8400084F8410084F8420084F8DB
:10132000430084F8440084F8450084F83D00002020
:1013300010BD704790F83D10012901D00120704781
:10134000022180F83D100168CA6842F00102CA60BB
:1013500000681149884214D0B0F1804F11D00F4974
:1013600088420ED00E4988420BD00E49884208D0E0
:101370000D49884205D00D49884202D00C49884267
:1013800004D1816801F00701062903D0016841F00A
:10139000010101600020704700000140000400408E
:1013A00000080040000C00400004014000400140E3
:1013B00000180040704770B50446006801694FF09E
:1013C0000005C943890715D4C168C943890711D4E9
:1013D000E91E01610120207720688069800720468E
:1013E00002D0FFF7E7FF04E000F098F8204600F095
:1013F00096F8257720680169C943490717D4C16861
:10140000C943490713D46FF004010161022020771A
:101410002068806910F4407F204602D0FFF7CAFFA1
:1014200004E000F07BF8204600F079F8257720688A
:101430000169C943090716D4C168C943090712D411
:101440006FF008010161042020772068C0698007DF
:10145000204602D0FFF7AEFF04E000F05FF8204620
:1014600000F05DF8257720680169C943C90617D4E3
:10147000C168C943C90613D46FF010010161082087
:1014800020772068C06910F4407F204602D0FFF723
:1014900091FF04E000F042F8204600F040F8257784
:1014A00020680169C943C90708D1C168C943C90790
:1014B00004D1891E0161204600F032F820680169DC
:1014C000C943090609D4C168C943090605D46FF0A8
:1014D000800101612046FFF7FDFE20680169C943D4
:1014E000490609D4C168C943490605D46FF04001D3
:1014F0000161204600F01EF820680169C943890691
:101500000BD4C168C943890607D46FF0200101617B
:101510002046BDE87040FFF7DEBE70BD70477047E3
:1015200000680349884201D1FFF75EBB70470000A5
:10153000000001407047FEE70F4810B50D490160FB
:101540000621416000214FF4C0228160C0E90312EE
:101550004FF4A0024261017641768176C17601772F
:101560004177FFF765F9002803D0BDE81040FFF789
:101570005EB810BD006400409C00002010B50B4A0E
:1015800000210B4800F024FB0A4C084A002120608F
:101590002432094800F01CFB044A606048320021F4
:1015A000064800F015FBA06010BD000030330008B5
:1015B00049190008000000200D1B00084316000810
:1015C00070B586B014216846FEF772FF1A480024F1
:1015D000016841F004010160016801F00401059116
:1015E000016841F080010160016801F0800105910E
:1015F000016841F001010160016801F001010591FC
:10160000016841F00201016000680C4E00F0020028
:101610004FF440750590002229463046FFF7D8FA6E
:1016200011200095CDE90104694630460394FFF787
:10163000D7F906B070BD0000303802400004024007
:10164000FEE7012000F088FAFBE7FEE770B5002412
:101650000021204600F0DDF80025002000F063F9AD
:101660006D1CEDB2802DF8D3641CE4B2082CEFD3CE
:1016700070BD000010B5064C012211022046FFF794
:10168000A7FA20460122BDE810405102FFF7A0BA98
:10169000000402402DE9F047144E002407464FF0A5
:1016A00080084FF40079B51528FA04F23A4049460B
:1016B0003046FFF78DFA012229463046FFF788FAB7
:1016C000002229463046FFF783FA641CE4B2082C56
:1016D000EAD3012229463046FFF77AFA29463046F6
:1016E000BDE8F0470022FFF773BA00000004024093
:1016F00070B501220B4D540221462846FFF768FAC7
:101700000122160231462846FFF762FA00222146DE
:101710002846FFF75DFA31462846BDE870400022B2
:10172000FFF756BA0004024070B50A4D4FF400743A
:10173000002221462846FFF74BFA012211022846D3
:10174000FFF746FA21462846BDE870400122FFF720
:101750003FBA00000004024010B500204FF47A7236
:101760000021491C9142FCD3401C9042F8D3FFF762
:1017700081FFAE2000F0C6F8D52000F0C3F880202D
:1017800000F0C0F8A82000F0BDF83F2000F0BAF843
:10179000D32000F0B7F8002000F0B4F8402000F0AB
:1017A000B1F8A12000F0AEF8C82000F0ABF8DA20C4
:1017B00000F0A8F8122000F0A5F8812000F0A2F8AF
:1017C000CF2000F09FF8D92000F09CF8F12000F025
:1017D00099F8DB2000F096F8302000F093F8A42070
:1017E00000F090F8A62000F08DF88D2000F08AF827
:1017F000142000F087F8AF2000F084F8BDE8104016
:10180000FFF724BF0246012000E05043491EFCD2EE
:10181000704710B50C4640F0B00000F073F810208F
:1018200040EA141000F06EF804F00F00BDE810401C
:1018300000F068B82DE9F0410746CE004000083EB0
:10184000801E15464FF0FF38F1B2C0B2FFF7E1FF3E
:101850001148002400EB05152819A0F5805090F8D8
:10186000000E00F060F8641CE4B2082CF4D308EB1E
:101870004700F1B2C0B2FFF7CCFF00242819A0F551
:10188000805090F8080E00F04EF8641CE4B2082C6A
:10189000F4D3BDE8F0810000B43300082DE9F0472F
:1018A00000241D461646884681460A2713E0291B58
:1018B0000A20491EFFF7A6FFB6FBF0F0B0FBF7F1D8
:1018C00007FB110208EB0400C1B248463032FFF7B3
:1018D000B1FF641CE4B2AC42E9D3BDE8F0872DE966
:1018E000F04115460E460746002406E03019C1B205
:1018F0003846FFF79FFF641CE4B22A5D002AF5D149
:10190000BDE8F08110B50446FFF7F2FE7820FFF73E
:10191000C1FE0020FFF7BEFE2046FFF7BBFEBDE87C
:101920001040FFF701BF10B50446FFF7E1FE782035
:10193000FFF7B0FE4020FFF7ADFE2046FFF7AAFEFE
:10194000BDE81040FFF7F0BE00244FF49675641C0C
:101950000121E4B206A20846FFF7C1FF0323224695
:1019600005210120FFF79AFF284600F0F5F8EEE781
:10197000636E743A0000000010B54FF0E02000697B
:1019800001F01AFB012803D0BDE8104001F048B86F
:1019900010BD000030B593B030216846FEF788FDD9
:1019A00014210CA8FEF784FD1D480025016841F0B4
:1019B00080510160006800F0805011901948016862
:1019C00041F4804101600068022400F480401190DD
:1019D0000120039010200490009406940820CDE983
:1019E0000750A820CDE9090404200B906846FFF7B2
:1019F000BBFA08B172B6FEE70CA90F2081E83100EE
:101A00004FF4A0500F904FF48050109005210CA877
:101A1000FFF7AEF9002801D072B6FEE713B030BD73
:101A200040380240007000400248016841F47001F3
:101A30000160704788ED00E00148FFF7BCBC000082
:101A4000C4000020F0B50268254C264D264E274FD5
:101A5000274B4FF0804CA04209D0604507D0A842E8
:101A600005D0B04203D0B84201D0984204D122F050
:101A7000700E4A6842EA0E02A0421BD0604519D09F
:101A8000A84217D0B04215D0B84213D0984211D016
:101A9000184DA8420ED0184DA8420BD0174DA842A1
:101AA00008D0174DA84205D0164DA84202D0164DB9
:101AB000A84203D122F44075CA682A434D6922F036
:101AC00080022A4302608A68C2620A688262A04277
:101AD00001D0984201D10969016301214161F0BD42
:101AE000000001400004004000080040000C0040DD
:101AF0000004014000400140004401400048014012
:101B000000180040001C004000200040012000F0B0
:101B100023F8FBE7FEE70907090E002804DB00F1C4
:101B2000E02080F80014704700F00F0000F1E02082
:101B300080F8141D7047FFF75FF8FFF72BFFFFF7E2
:101B40003FFDFFF7F9FCFFF707FE00F013F8FFF782
:101B500015FD00F021F8FEE710B5EFF3058111B196
:101B60006FF0050403E0002408B100F0F9FD204601
:101B700010BD0000EFF3058010B16FF00500704755
:101B80000448016811B14FF0FF3070470121016036
:101B9000002070476C00002010B5EFF3058010B1F5
:101BA0006FF0050010BD08480168012902D04FF010
:101BB000FF3010BD054A002182F8141D022101608A
:101BC00000F036FE002010BD6C0000200BE000E0AD
:101BD0002DE9FF414FEA01034FF00005EFF30581C6
:101BE000039549BB40B38027182100244AB31668E7
:101BF00006B1344696691EB13146761E382E02D2A1
:101C00001679F60703D0002004B0BDE8F0815669CC
:101C100006B1B708D2F808C0BCF1000F0DD0D568E6
:101C20005C2D18D312693AB136B18DE806103A46E8
:101C3000214601F096F903900DE0D6685EB912696D
:101C40004AB903AACDE90012BAB2214601F05CF903
:101C5000012800D003950398D6E700002DE9F04154
:101C6000134C0F460546E6682068001D00F044FC52
:101C7000681C07D137B12168BDE8F0410D48091D46
:101C800000F08ABC20683544B5424560216805D221
:101C9000A06BBDE8F041091D00F066BC606B091D3A
:101CA00000F062FCA06A854200D2A562BDE8F08126
:101CB0001C000020FC0500202DE9F041054600F045
:101CC00077FC2D4CA068401CA06020682B4F10B101
:101CD000606930B32BE02560A068012827D1002679
:101CE00006EB860007EB800000F030FC761C382EF7
:101CF000F6D3234800F02AFC2148143000F026FCDB
:101D00001F48283000F022FC1D483C3000F01EFC2B
:101D10001B48503000F01AFC194860631430A0636F
:101D200005E02068E96AC06A884200D82560606AD8
:101D3000401C60626864E86A2169884200D92061B9
:101D400000EB800007EB8000291D00F025FC00F06F
:101D50004FFC606900280CD02068E96AC06A88429C
:101D600007D208494FF080500860BFF34F8FBFF390
:101D70006F8FBDE8F08100001C0000204C010020A6
:101D8000AC05002004ED00E038B500F011FC104C6B
:101D90002068C8B90F4800F0D9FB0E48143000F095
:101DA000D5FB0C48E060143020610A4B0020F03B6A
:101DB000009003F1500210210A2000F047FE20603D
:101DC00010B105A100F096FCBDE8384000F010BC51
:101DD0005800002000070020546D725100000000E0
:101DE00030B4026C0B46002A0BD0C1681144C160AC
:101DF0008468A14201D30168C16030BC1846FEF777
:101E00000ABB30BC70472DE9F041856B174604468C
:101E10000026026C82B1C7B1E068FEF7FCFAE16807
:101E2000206C091AE1602268914202D2A168081A66
:101E3000E060022F16D017E02068A8B9A06801F072
:101E400033F906460020A0600EE06068FEF7E3FA72
:101E5000216C606808446060A168884204D32068EF
:101E6000606001E005B16D1E6D1CA5633046BDE8E4
:101E7000F08110B5044690F8590058B101280CD0F3
:101E800002280FD0502080F31188BFF34F8FBFF38B
:101E90006F8FFEE7206B00F0BFFB2046BDE81040CF
:101EA00000F0BABB10BD000010484FF4705142075B
:101EB00006D0C01D0D4920F00700411AC1F5705130
:101EC0000B4A00230144C2E900030839183A21F003
:101ED000070111604B600B600B1AC0E9001393609F
:101EE0004FF000405360506170470000E00D00204B
:101EF00088000020144E154CA6F29C474FF08058E5
:101F0000DFF84C9012E000BF00F052FBF068C568AB
:101F1000281D00F0F1FAA068401EA0606068401E15
:101F2000606000F065FB2846FFF7A3FF60680028AB
:101F3000EAD138680128F9D9C9F80080BFF34F8F7A
:101F4000BFF36F8FF2E70000E80500201C000020BF
:101F500004ED00E070B51D46049C51B1C4F80020AA
:101F6000C4E90F010121204600F0A4FD84F84C5083
:101F700070BD2460F4E700002DE9F05F8846DDE9DC
:101F80000B941546834691009A460A9EA522206B23
:101F9000FEF786FA6FF00301206B01EB8501084420
:101FA00020F00707780707D0502080F31188BFF38F
:101FB0004F8FBFF36F8FFEE70025B8F1000F0FD0F2
:101FC0005FF00000221818F8001082F8341018F89A
:101FD000001011B1401C1028F4D384F8435001E0E4
:101FE00084F83450382E00D33726E662C4E91365EE
:101FF000201D00F0B6FA04F1180000F0B2FA2461D6
:10200000C6F138006462A061656584F85850524694
:102010005946384600F05AFA2060B9F1000F01D055
:10202000C9F80040BDE8F09F30B5114900E0114605
:102030000A688242FBD34B685C18844203D1406833
:1020400018444860084643681C18944209D1084C5B
:10205000183C2468A24209D052681A4442600A68B7
:1020600012680260814200D0086030BD0460F9E768
:102070008800002070B5002441600B4D0061914242
:1020800006D8D11A8269914206D2011D286907E05B
:102090009A4203D2994201D3012403E0011DE8686A
:1020A00000F062FA204670BD5800002010B50446CA
:1020B00000F07EFAA06B28B15FF0000400F098FAFF
:1020C000204610BD0124F9E730B589B03C4D6EE0E3
:1020D0000498002806DADDE90601059A904704987D
:1020E000002864DB069C606910B1201D00F004FA32
:1020F00003A800F0D7F8024604980A2857D2DFE870
:1021000000F00505052D334A05052D3394F8280008
:1021100040F0010084F828000599A069059B01445E
:102120002046FFF7A7FF68B3216A2046884794F846
:10213000280040073BD5002000900598A1690023A6
:1021400042181946204601F0B9F8D8B9502080F35A
:102150001188BFF34F8FBFF36F8FFEE714F8280F7E
:1021600020F00100207022E094F8280040F00100E7
:1021700084F828000598A06128B1811813462046EC
:10218000FFF778FF13E0502080F31188BFF34F8FE3
:10219000BFF36F8FFEE794F82800810703D4204631
:1021A00000F03AFA03E020F0010084F82800002251
:1021B00004A9286800F0D2FD002889D109B030BDFB
:1021C000580000202DE9FC410F46054600F074FB45
:1021D00001A800F067F80446019818B100F0DCFF90
:1021E000BDE8FC81254EAFB130690068D0B300274F
:1021F000291B3A46306800F091FA00F0CDFF002824
:10220000EED11F494FF080500860BFF34F8FBFF3EE
:102210006F8FE5E7A542EBD800F0BEFFF0682746D8
:10222000C068C468201D00F067F994F828004107D1
:1022300019D5A0692B4641193A462046FFF71AFFE7
:10224000A8B100200346014600902A46204601F02E
:1022500035F860B9502080F31188BFF34F8FBFF37A
:102260006F8FFEE707E020F0010084F82800216A64
:1022700020468847B4E70127BAE70000580000204D
:1022800004ED00E00648416B096829B1416BC9685B
:10229000C9684968816270474FF0FF31FAE7000072
:1022A0001C00002070B5054600F094FE064E044662
:1022B000B068844203D200F009F8012000E0002059
:1022C00028602046B46070BD58000020F8B5194D54
:1022D00020E0C068C4680668201D00F00DF9216A7E
:1022E0002046884794F82800400713D5A069304459
:1022F000B04206D924616060211DE86800F034F91D
:1023000008E000200346014600903246204600F0D7
:10231000D5FF38B1E86801680029DAD12969C5E933
:102320000310F8BD502080F31188BFF34F8FBFF327
:102330006F8FFEE75800002008484068401C4FF0AF
:10234000500080F3118804D0BFF34F8FBFF36F8F1D
:10235000FEE7BFF34F8FBFF36F8FFEE790000020C3
:10236000074CE068016841B1C0680021D0F8000066
:10237000FFF728FFFFF7A8FEF3E701210020F7E7AA
:10238000580000202DE9F041044600F011F994F9BD
:10239000455004F1240609E0606A48B1304600F077
:1023A000C3FE08B100F00AFA6D1E6DB2002DF3DC19
:1023B0004FF0FF3684F8456000F01AF900F0F8F8A5
:1023C00094F9445004F1100709E0206948B13846F7
:1023D00000F0AAFE08B100F0F1F96D1E6DB2002DFB
:1023E000F3DC84F84460BDE8F04100F001B900007E
:1023F0002DE9F0410546002700F05EFA324E3068C4
:1024000008B9FFF751FD706905424ED1C5B30835D3
:1024100068070ED005F00700C0F108000544680702
:1024200007D0502080F31188BFF34F8FBFF36F8F19
:10243000FEE72DB37068854237D82348183001462F
:102440000C6801E020460C466168A94202D221686E
:102450000029F7D131688C4227D0076821680160D4
:1024600060680837411B10290FD96019420708D04E
:10247000502080F31188BFF34F8FBFF36F8FFEE7BB
:1024800013E041606560FFF7CFFD61687068401A36
:102490007060B268904200D2B06070690143002061
:1024A000C4E90001F068401CF06000F075FE780798
:1024B00007D0502080F31188BFF34F8FBFF36F8F89
:1024C000FEE73846BDE8F0817000002010B5031F1C
:1024D0004FF080741C601B1F21F001011960191F4F
:1024E000044B0B6014390A60091F6FF00202443874
:1024F0000A6010BD39230008D0E9013201699A60F1
:10250000D0E901235A604A68824201D182684A6058
:10251000002202610868401E0860086870470000D9
:10252000034B036003F15C0008608020106070477B
:1025300028070020044B036003F15C0008604FF49F
:1025400080701060704700008409002000F10801CD
:102550004FF0FF32C0E90112C1600161002101604A
:10256000704700210161704730B50B685A1C02D0DA
:1025700000F1080202E0026904E02246546825687E
:102580009D42FAD953684B6099608A605160086136
:102590000168491C016030BD42684A6093688B60E5
:1025A00093685960916008610168491C0160704737
:1025B000502080F31188BFF34F8FBFF36F8F0A490C
:1025C0004868401C486001280CD10848006810F099
:1025D000FF0F07D0502080F31188BFF34F8FBFF358
:1025E0006F8FFEE7704700009000002004ED00E0D0
:1025F0000849486828B1401E486001D180F311881D
:102600007047502080F31188BFF34F8FBFF36F8F57
:10261000FEE700009000002070B500282AD0164D7B
:10262000A0F1080460686969084207D1502080F36E
:102630001188BFF34F8FBFF36F8FFEE722683AB167
:10264000502080F31188BFF34F8FBFF36F8FFEE7E9
:102650008843606000F030F9606869680844686029
:102660002046FFF7E1FC2869401C2861BDE8704066
:1026700000F092BD70BD0000700000204FF0E0201F
:1026800000210161816105494FF47A720968B1FB4B
:10269000F2F1491E416107210161704718000020D5
:1026A00010B5FDF71DFE114910280ED300F1E020F2
:1026B00090F8F0030A78904207D2502080F31188F6
:1026C000BFF34F8FBFF36F8FFEE70948006889683B
:1026D00000F4E060884207D9502080F31188BFF3EE
:1026E0004F8FBFF36F8FFEE710BD000090000020FA
:1026F0000CED00E010B5084B002200BF53F832404B
:102700001CB1521C082AF9D310BD43F8321003EB58
:10271000C201486010BD00000C01002070B51546D4
:102720000E460446FFF744FF94F944100020491C6C
:1027300001D184F8440094F94510491C01D184F872
:102740004500FFF755FFA06B28B92A46314604F132
:10275000240000F051F82046BDE87040FFF712BE9B
:1027600010B5020014D00F48006B38B1502080F330
:102770001188BFF34F8FBFF36F8FFEE700F09CF817
:1027800000211046FFF76AFA00F006FD002807D185
:1027900005494FF080500860BFF34F8FBFF36F8F34
:1027A00010BD00001C00002004ED00E002490A6A90
:1027B0000260C968416070471C0000200149012087
:1027C000C86170471C00002010B50C4650B1094983
:1027D00009681831FFF7C8FE2046BDE81040012106
:1027E000FFF73CBA502080F31188BFF34F8FBFF33F
:1027F0006F8FFEE71C00002070B514460D4668B1CF
:102800000A4909681831FFF7C7FE0CB14FF0FF35D0
:1028100021462846BDE87040FFF720BA502080F3DB
:102820001188BFF34F8FBFF36F8FFEE71C000020AE
:1028300030B587B00024039405AA04A903A8049422
:10284000FFF76EFEDDE903010094CDE901100023DE
:1028500015A11748059A00F084FB164D0028E86280
:102860001FD000F0FBFC012809D0401C19D15020DA
:1028700080F31188BFF34F8FBFF36F8FFEE75020B7
:1028800080F31188BFF34F8FBFF36F8F4FF0FF308E
:10289000A86201206861EC6007B0BDE8304000F03C
:1028A00045B807B030BD000049444C450000000069
:1028B000F51E00081C0000200248016B491C016342
:1028C000704700001C000020164810B5016B11B1C4
:1028D0000121C16110BD0021C1610169124A01E0FD
:1028E000B9B1491E01EB810352F82330002BF7D018
:1028F00001EB810302EB830202F1080453685B6879
:102900005360A34201D15B685360DA6802600161E1
:1029100010BD502080F31188BFF34F8FBFF36F8F2E
:10292000FEE700001C0000204C0100201CB53748C9
:102930000168374A914207D1502080F31188BFF3D4
:102940004F8FBFF36F8FFEE700683149491E884201
:1029500007D1502080F31188BFF34F8FBFF36F8FE3
:10296000FEE72C4908780190FF20087008788DF860
:1029700000009DF800009DF8002000F0F00090425B
:1029800007D0502080F31188BFF34F8FBFF36F8FB4
:10299000FEE79DF80000204C00F05000207007205A
:1029A000A06005E09DF8002052008DF80020401E38
:1029B0009DF800201206F5D4A060032807D050200F
:1029C00080F31188BFF34F8FBFF36F8FFEE74FF493
:1029D0004070A060019808700C482030016841F4F4
:1029E00070010160016841F070410160FFF746FE2F
:1029F00000206060FDF73CFC0848016841F0404160
:102A00000160FDF721FC00201CBD000000ED00E08E
:102A100071C20F4100E400E09000002034EF00E0BC
:102A200010B5502080F31188BFF34F8FBFF36F8F25
:102A300000F0D6FA18B104494FF080500860002029
:102A400080F3118810BD000004ED00E038B5049D4E
:102A500018B153B1CAB181B120E0502080F3118880
:102A6000BFF34F8FBFF36F8FFEE7502080F31188C5
:102A7000BFF34F8FBFF36F8FFEE7502080F31188B5
:102A8000BFF34F8FBFF36F8FFEE739B1502080F354
:102A90001188BFF34F8FBFF36F8FFEE750241C46A2
:102AA000012384F846302B460094FFF753FA204662
:102AB00038BD000070B50D46040025D0FFF778FD45
:102AC000D4E90F20216802FB0011A1600021A1635D
:102AD000216861600A46D4E90F01401E00FB012114
:102AE000E16021464FF0FF3001F8440F487004F1D7
:102AF00010008DB1FFF72AFD04F12400FFF726FD39
:102B0000FFF776FD012070BD502080F31188BFF3E0
:102B10004F8FBFF36F8FFEE721690029F0D000F0DF
:102B200003FB0028ECD004494FF080500860BFF34D
:102B30004F8FBFF36F8FE3E704ED00E02DE9FF4710
:102B400082B01D468A464FF00008040003D0BAF157
:102B5000000F08D011E0502080F31188BFF34F8F91
:102B6000BFF36F8FFEE7206C38B1502080F31188DF
:102B7000BFF34F8FBFF36F8FFEE7022D0AD1E06BDB
:102B8000012807D0502080F31188BFF34F8FBFF387
:102B90006F8FFEE700F010FA3F4F4FF000094FF043
:102BA000805648B9049838B1502080F31188BFF39B
:102BB0004F8FBFF36F8FFEE7FFF7FAFCA06BE16B5F
:102BC000884207D3022D05D00498D0B1B8F1000F88
:102BD0001AD01EE02A4651462046FFF714F9616AD2
:102BE00019B104F1240000F09FFA20B13E60BFF358
:102BF0004F8FBFF36F8FFFF7FBFC012006B0BDE8DE
:102C0000F087FFF7F5FC22E06846FFF7CFFD4FF0B5
:102C10000108FFF7EDFCFFF74FFEFFF7C9FC94F941
:102C20004400401C01D184F8449094F94500401CB4
:102C300001D184F84590FFF7DBFC04A9684600F059
:102C400029F930B12046FFF79DFB00F0A5FA0020DE
:102C5000D4E7FFF7ADFCA06BE16B884213D1FFF71F
:102C6000C7FC04F110000499FFF7AEFD2046FFF702
:102C700089FB00F091FA00289ED13E60BFF34F8F90
:102C8000BFF36F8F98E7FFF7B3FC2046FFF77AFB9F
:102C900000F082FA90E7000004ED00E02DE9F04733
:102CA0001F4690468946040003D0B9F1000F08D0B2
:102CB00011E0502080F31188BFF34F8FBFF36F8F67
:102CC000FEE7206C38B1502080F31188BFF34F8F9E
:102CD000BFF36F8FFEE7022F0AD1E06B012807D008
:102CE000502080F31188BFF34F8FBFF36F8FFEE743
:102CF000FFF7D6FC5020EFF3118680F31188BFF365
:102D00004F8FBFF36F8FA06BE16B884206D3022F0A
:102D100004D0002086F31188BDE8F08794F945506F
:102D2000A06B3A4649462046FFF76DF8681C04D070
:102D30006D1C84F845500120ECE7606A0028FAD049
:102D400004F1240000F0F0F90028F4D0B8F1000FED
:102D5000F1D00121C8F80010EDE700002DE9F74798
:102D6000002683B08A46040003D0BAF1000F08D0D1
:102D700011E0502080F31188BFF34F8FBFF36F8FA6
:102D8000FEE7206C38B1502080F31188BFF34F8FDD
:102D9000BFF36F8FFEE700F00FF9DFF8F4804FF01C
:102DA00000094FF0805748B9059838B1502080F39A
:102DB0001188BFF34F8FBFF36F8FFEE7FFF7F8FB6C
:102DC000A56BC5B151462046FFF70AF86D1EA563F5
:102DD000206950B104F1100000F0A6F928B1C8F83C
:102DE0000070BFF34F8FBFF36F8FFFF701FC01201F
:102DF00006B0BDE8F087059808B11EB106E0FFF700
:102E0000F7FB27E06846FFF7D1FC0126FFF7F0FB50
:102E1000FFF752FDFFF7CCFB94F94400401C01D1B1
:102E200084F8449094F94500401C01D184F8459001
:102E3000FFF7DEFB05A9684600F02CF800282046C5
:102E40000AD0FFF79FFA00F0A7F92046FFF72EF906
:102E50000028B3D00020CBE7FFF728F990B104F1A8
:102E600024000599FFF7B0FC2046FFF78BFA00F02D
:102E700093F90028A2D1C8F80070BFF34F8FBFF3B9
:102E80006F8F9BE72046FFF77DFA00F085F995E705
:102E900004ED00E02DE9F0410C46050011D0C4B16D
:102EA000FFF786FB174BDA686E682068911B471C9A
:102EB00017D02F681B6A9F4219D0964217D8012459
:102EC00010E0502080F31188BFF34F8FBFF36F8F56
:102ED000FEE7502080F31188BFF34F8FBFF36F8F51
:102EE000FEE70024FFF784FB2046BDE8F08188421E
:102EF00005D9401A20602846FFF758FCF1E700206A
:102F00002060DCE71C0000202DE9FF5F8346DDE93F
:102F10000E87994616468A469000FFF769FA050023
:102F20001CD05C20FFF764FA040014D00020256355
:102F300084F85900CDE90240CDE900874B4632467E
:102F400051465846FFF718F82046FEF7B5FE012017
:102F500004B0BDE8F09F2846FFF75EFB4FF0FF305E
:102F6000F6E7F0B585B0DDE90B640A9DA6B1DCB1EA
:102F70005C2700972663022684F85960002604AF78
:102F8000CDE90246CDE90057FEF7F6FF2046FEF7F1
:102F900093FE049805B0F0BD502080F31188BFF374
:102FA0004F8FBFF36F8FFEE7502080F31188BFF380
:102FB0004F8FBFF36F8FFEE70548416919B1006B72
:102FC00018B10020704701207047022070470000B0
:102FD0001C0000200148C068704700001C00002051
:102FE0002DE9F0412E4C0027206B28B1A069401C30
:102FF000A0613846BDE8F081E668761CE66013D132
:10300000606B006838B1502080F31188BFF34F8F98
:10301000BFF36F8FFEE7606BA16B6163A063206AF3
:10302000401C2062FFF72EF9A06ADFF87880864204
:1030300009D3606B0068A0B1606BC068C568686840
:10304000864211D2A0622068C06A00EB800158F865
:103050002100012800D90127E0690028C9D00127F3
:10306000C7E74FF0FF30EDE7281DFFF745FAA86AE4
:1030700018B105F11800FFF73FFAE86A21698842A4
:1030800000D9206100EB800108EB8100291DFFF7CA
:1030900083FAE86A2168C96A8842CAD30127C8E767
:1030A0001C0000204C01002070B504004FF000010E
:1030B00033D01B4D2868844207D0502080F31188FC
:1030C000BFF34F8FBFF36F8FFEE7206D38B1401E07
:1030D0002065E36CE26A9A421FD040B11DE05020A7
:1030E00080F31188BFF34F8FBFF36F8FFEE7201D72
:1030F000FFF702FAE06CE062C0F13800A061E06A1C
:103100002969884200D92861064900EB800001EB5B
:103110008000211DFFF740FA0121084670BD000024
:103120001C0000204C01002070B5C068C46854B178
:1031300004F118000646FFF7DFF9144D286B50B173
:103140003146134815E0502080F31188BFF34F8FAC
:10315000BFF36F8FFEE7201DFFF7CEF9E06A296904
:10316000884200D928610B4900EB800001EB800008
:10317000211DFFF711FAE06A2968C96A884202D95D
:103180000120E86170BD002070BD00001C0000201F
:10319000D40500204C0100202DE9F0472C4D0024DF
:1031A0002746286B38B1FFF703FA286B401E2863C7
:1031B000286B40B146E0502080F31188BFF34F8F59
:1031C000BFF36F8FFEE7A968224E0120D1B3A6F5A9
:1031D000916980463068E0B1F068C46804F1180075
:1031E000FFF78AF9201DFFF787F9E06A296988420D
:1031F00000D9286100EB800109EB8100211DFFF758
:10320000CBF9E06A2968C96A8842E3D3C5F81C8013
:10321000E0E70CB1FFF736F8AC694CB14FEA0806AD
:10322000FFF7DEFE00B1EE61641EF9D10020A86157
:10323000E86938B10849012738070860BFF34F8FA4
:10324000BFF36F8FFFF7D4F93846BDE8F087000071
:103250001C000020D405002004ED00E010B586B06D
:10326000FEF792FD114C2068B8B100200390049045
:1032700005AA04A903A8FFF75DF9DDE903210220EF
:103280008DE8070000230AA10B48059AFFF769FEA5
:10329000606010B106B0012010BD502080F311888D
:1032A000BFF34F8FBFF36F8FFEE700005800002081
:1032B000546D722053766300612300082DE9FF41AD
:1032C0001E46134602000A9D4FF0000016D0144C13
:1032D0002768002F0FD0CDE900130292062917DAD4
:1032E000FFF76AFE02284FF000030FD00022694664
:1032F0002068FFF723FC04B0BDE8F081502080F384
:103300001188BFF34F8FBFF36F8FFEE72A46EEE7BA
:103310000023324669463846FFF7C0FCEBE7000061
:10332000580000204FF04070E1EE100A7047000096
:10333000BC39000800000000000000000000000090
:103340000000000000020000180000000000000063
:1033500000000000A4390008000000000000000088
:103360000000000000000000000200000800000053
:103370000000000000000000B0390008000000005C
:10338000000000000000000000000000000200003B
:103390000800000000000000000000000000000025
:1033A00000000000010203040607080900000000F5
:1033B0000102030400000000000000000000000003
:1033C00000000000000000F80000000000000033D2
:1033D0003000000000100C06100C06000000000079
:1033E0000000000040C07840C0784000043F040462
:1033F0003F040400007088FC08300000001820FF23
:10340000211E0000F008F000E018000000211C035D
:103410001E211E0000F00888700000001E212324D9
:103420001927211010160E000000000000000000F7
:1034300000000000000000E0180402000000000787
:103440001820400000020418E0000000004020188E
:1034500007000000404080F0804040000202010F61
:1034600001020200000000F0000000000101011F45
:1034700001010100000000000000000080B07000A9
:103480000000000000000000000000000001010139
:1034900001010101000000000000000000303000C8
:1034A00000000000000000008060180400601806A2
:1034B0000100000000E010080810E000000F1020DC
:1034C00020100F00001010F8000000000020203F26
:1034D00020200000007008080888700000302824B0
:1034E0002221300000300888884830000018202051
:1034F00020110E000000C02010F800000007042476
:10350000243F240000F808888808080000192120BA
:1035100020110E0000E0108888180000000F112014
:1035200020110E0000380808C83808000000003FCD
:10353000000000000070880808887000001C22212C
:1035400021221C0000E010080810E00000003122D9
:1035500022110F00000000C0C00000000000003079
:1035600030000000000000800000000000008060CB
:10357000000000000000804020100800000102044C
:103580000810200040404040404040000404040433
:1035900004040400000810204080000000201008EF
:1035A00004020100007048080808F0000000003024
:1035B00036010000C030C828E810E00007182724B2
:1035C00023140B000000C038E0000000203C230260
:1035D0000227382008F8888888700000203F2020C3
:1035E00020110E00C03008080808380007182020F5
:1035F0002010080008F808080810E000203F2020EC
:1036000020100F0008F88888E8081000203F2020CC
:103610002320180008F88888E8081000203F2000C0
:1036200003000000C03008080838000007182020F8
:10363000221E020008F808000008F808203F2101B7
:1036400001213F20000808F8080800000020203F62
:103650002020000000000808F8080800C0808080D2
:103660007F00000008F888C028180800203F2001CB
:103670002638200008F8080000000000203F202025
:103680002020300008F8F800F8F80800203F003F3C
:10369000003F200008F830C00008F808203F200054
:1036A00007183F00E01008080810E0000F10202065
:1036B00020100F0008F808080808F000203F21013A
:1036C00001010000E01008080810E0000F18242491
:1036D00038504F0008F8888888887000203F200004
:1036E000030C3020007088080808380000382021BA
:1036F00021221C00180808F8080818000000203FC4
:103700002000000008F808000008F808001F20202A
:1037100020201F000878880000C8380800000738FB
:103720000E010000F80800F80008F800033C07004C
:10373000073C0300081868808068180820302C03B4
:10374000032C30200838C800C83808000000203F8B
:103750002000000010080808C8380800203826217A
:1037600020201800000000FE020202000000007F7E
:1037700040404000000C30C000000000000000018C
:103780000638C00000020202FE0000000040404077
:103790007F0000000000040202020400000000009C
:1037A0000000000000000000000000008080808019
:1037B0008080808000020204000000000000000001
:1037C000000000000000808080800000001924229A
:1037D00022223F2008F8008080000000003F1120D6
:1037E00020110E000000008080800000000E1120DB
:1037F00020201100000000808088F800000E1120B9
:1038000020103F200000808080800000001F2222C6
:1038100022221300008080F0888888180020203F32
:10382000202000000000808080808000006B949445
:103830009493600008F8008080800000203F210001
:1038400000203F2000809898000000000020203FCA
:1038500020200000000000809898000000C08080B8
:10386000807F000008F8000080808000203F240254
:103870002D302000000808F8000000000020203F44
:10388000202000008080808080808000203F2000F9
:103890003F20003F8080008080800000203F21008A
:1038A00000203F200000808080800000001F20203A
:1038B00020201F00808000808000000080FFA12069
:1038C00020110E000000008080808000000E11207A
:1038D00020A0FF80808080008080800020203F2109
:1038E00020000100000080808080800000332424BC
:1038F00024241900008080E0808000000000001F68
:10390000202000008080000000808000001F202018
:1039100020103F20808080000080808000010E30D9
:103920000806010080800080008080800F300C033A
:103930000C300F0000808000808080000020312E3D
:103940000E312000808080000080808080818E7019
:103950001806010000808080808080000021302CCB
:103960002221300000000000807C020200000000E4
:10397000003F404000000000FF0000000000000089
:10398000FF0000000002027C800000000040403F79
:103990000000000000060101020204040000000013
:1039A000000000006D795461736B3032000000003C
:1039B0006D795461736B303300000000646566619B
:1039C000756C745461736B00E839000800000020C6
:1039D0009C000000C4010008843A00089C000020FC
:1039E000A44F0000E00100080000000000000000FB
:1039F00000000000010000001000000000000000B6
:103A00000024F4000000000000000000000000009E
:103A100000000000000000000000000000000000A6
:103A20000000000000000000000000000000000096
:103A30000000000000000000000000000000000086
:103A40000000000000000000000000000000000076
:103A50000000000000000000000000000000000066
:103A60000000000000000000000000000000000056
:103A7000000000000000000000000000AAAAAAAA9E
:043A80000000000042
:040000050800018965
:00000001FF
